{
  "_format": "hh-sol-artifact-1",
  "contractName": "CoinFlip",
  "sourceName": "contracts/CoinFlip.sol",
  "abi": [
    {
      "inputs": [],
      "stateMutability": "nonpayable",
      "type": "constructor"
    },
    {
      "inputs": [
        {
          "internalType": "bool",
          "name": "guess",
          "type": "bool"
        }
      ],
      "name": "flipCoin",
      "outputs": [
        {
          "internalType": "bool",
          "name": "",
          "type": "bool"
        }
      ],
      "stateMutability": "payable",
      "type": "function"
    },
    {
      "inputs": [],
      "name": "owner",
      "outputs": [
        {
          "internalType": "address",
          "name": "",
          "type": "address"
        }
      ],
      "stateMutability": "view",
      "type": "function"
    }
  ],
  "bytecode": "0x608060405234801561001057600080fd5b50336000806101000a81548173ffffffffffffffffffffffffffffffffffffffff021916908373ffffffffffffffffffffffffffffffffffffffff16021790555061041f806100606000396000f3fe6080604052600436106100295760003560e01c80637b8ff38f1461002e5780638da5cb5b1461005e575b600080fd5b6100486004803603810190610043919061018d565b610089565b6040516100559190610255565b60405180910390f35b34801561006a57600080fd5b50610073610154565b604051610080919061023a565b60405180910390f35b60008034116100cd576040517f08c379a00000000000000000000000000000000000000000000000000000000081526004016100c490610270565b60405180910390fd5b6000806002426100dd9190610343565b1490508215158115151415610149573373ffffffffffffffffffffffffffffffffffffffff166108fc60023461011391906102a1565b9081150290604051600060405180830381858888f1935050505015801561013e573d6000803e3d6000fd5b50600191505061014f565b60009150505b919050565b60008054906101000a900473ffffffffffffffffffffffffffffffffffffffff1681565b600081359050610187816103d2565b92915050565b60006020828403121561019f57600080fd5b60006101ad84828501610178565b91505092915050565b6101bf816102fb565b82525050565b6101ce8161030d565b82525050565b60006101e1602483610290565b91507f42657420616d6f756e74206d7573742062652067726561746572207468616e2060008301527f7a65726f000000000000000000000000000000000000000000000000000000006020830152604082019050919050565b600060208201905061024f60008301846101b6565b92915050565b600060208201905061026a60008301846101c5565b92915050565b60006020820190508181036000830152610289816101d4565b9050919050565b600082825260208201905092915050565b60006102ac82610339565b91506102b783610339565b9250817fffffffffffffffffffffffffffffffffffffffffffffffffffffffffffffffff04831182151516156102f0576102ef610374565b5b828202905092915050565b600061030682610319565b9050919050565b60008115159050919050565b600073ffffffffffffffffffffffffffffffffffffffff82169050919050565b6000819050919050565b600061034e82610339565b915061035983610339565b925082610369576103686103a3565b5b828206905092915050565b7f4e487b7100000000000000000000000000000000000000000000000000000000600052601160045260246000fd5b7f4e487b7100000000000000000000000000000000000000000000000000000000600052601260045260246000fd5b6103db8161030d565b81146103e657600080fd5b5056fea264697066735822122026dd24461e4ce695f70d174bcadc847940845fc3bc0113574d08b513a5a1d4a964736f6c63430008000033",
  "linkReferences": {},
  "deployedLinkReferences": {}
}